{
  "contractName": "ACKVerifier",
  "abi": [
    {
      "inputs": [
        {
          "components": [
            {
              "components": [
                {
                  "internalType": "uint256",
                  "name": "X",
                  "type": "uint256"
                },
                {
                  "internalType": "uint256",
                  "name": "Y",
                  "type": "uint256"
                }
              ],
              "internalType": "struct Pairing.G1Point",
              "name": "a",
              "type": "tuple"
            },
            {
              "components": [
                {
                  "internalType": "uint256[2]",
                  "name": "X",
                  "type": "uint256[2]"
                },
                {
                  "internalType": "uint256[2]",
                  "name": "Y",
                  "type": "uint256[2]"
                }
              ],
              "internalType": "struct Pairing.G2Point",
              "name": "b",
              "type": "tuple"
            },
            {
              "components": [
                {
                  "internalType": "uint256",
                  "name": "X",
                  "type": "uint256"
                },
                {
                  "internalType": "uint256",
                  "name": "Y",
                  "type": "uint256"
                }
              ],
              "internalType": "struct Pairing.G1Point",
              "name": "c",
              "type": "tuple"
            }
          ],
          "internalType": "struct ACKVerifier.Proof",
          "name": "proof",
          "type": "tuple"
        },
        {
          "internalType": "uint256[4]",
          "name": "input",
          "type": "uint256[4]"
        }
      ],
      "name": "verifyTx",
      "outputs": [
        {
          "internalType": "bool",
          "name": "r",
          "type": "bool"
        }
      ],
      "stateMutability": "view",
      "type": "function"
    }
  ],
  "bytecode": "0x608060405234801561001057600080fd5b50611660806100206000396000f3fe608060405234801561001057600080fd5b506004361061002b5760003560e01c8063799afa7614610030575b600080fd5b61004a600480360381019061004591906113c7565b610060565b6040516100579190611424565b60405180910390f35b600080600467ffffffffffffffff81111561007e5761007d6110a5565b5b6040519080825280602002602001820160405280156100ac5781602001602082028036833780820191505090505b50905060005b6004811015610105578381600481106100ce576100cd61143f565b5b60200201518282815181106100e6576100e561143f565b5b60200260200101818152505080806100fd9061149d565b9150506100b2565b506000610112828661012e565b1415610122576001915050610128565b60009150505b92915050565b6000807f30644e72e131a029b85045b68181585d2833e84879b9709143e1f593f00000019050600061015e6102c5565b90508060800151516001865161017491906114e6565b1461017e57600080fd5b60006040518060400160405280600081526020016000815250905060005b865181101561023757838782815181106101b9576101b861143f565b5b6020026020010151106101cb57600080fd5b6102228261021d85608001516001856101e491906114e6565b815181106101f5576101f461143f565b5b60200260200101518a85815181106102105761020f61143f565b5b6020026020010151610830565b6108d7565b9150808061022f9061149d565b91505061019c565b506102618183608001516000815181106102545761025361143f565b5b60200260200101516108d7565b90506102a785600001518660200151610279846109a4565b856040015161028b8a604001516109a4565b876060015161029d89600001516109a4565b8960200151610a49565b6102b757600193505050506102bf565b600093505050505b92915050565b6102cd610f71565b60405180604001604052807f10bf0fec471841bce2d8b9e2a6dc3b2f2431e672dd5751997059ff1d8f16a62781526020017f21bfcf7d98faceaac6cbd80a4a8fb06019373701ac7f9f08c3f466f9b9b367c18152508160000181905250604051806040016040528060405180604001604052807f12706d317ff5f71ff4f58aab46ea6535d8386b3a3c65788c3d6300499f41afb981526020017f1c9145c0ab7f77a68ee62fbf077a7f543b7f98c6139131f5138f1e01fed2c3e9815250815260200160405180604001604052807f0a8730dc43b5c339819951b42be97199a0ae25c03be0ddf770d351c59da543c181526020017f05902dd2e1a7875c772d12b8d4f5f5e553e614dd7c6eb9819191ccae0b959d718152508152508160200181905250604051806040016040528060405180604001604052807f196c4c588bdd33d9de68092462af5578767100b97a3f9734cb63619495d3d74281526020017f1c55dfef540672f2ec0cc2586f4c8a1cc9010c73d7f6ae05e7a49a65140108e8815250815260200160405180604001604052807f181a46abcda8b25ee3c42629278574e55ab681285be7214727c9e0165068fb6781526020017f1df9aef27443415c50519dbf081ffb9ffe14d07f1b8323cab7074c14456084eb8152508152508160400181905250604051806040016040528060405180604001604052807f29bbe3b661eb40f1ea590f1cb0b0ac2341105dda1fe415fe7a4007c11c10b8ed81526020017f161278ef2bc17f7a75f1a5983baa8de7f02afa601338d8bcda900092e2869f6a815250815260200160405180604001604052807f169a2f332aed48a71611c15fa2c7f3fc4d87e19f7c9644a16bd36feac747454e81526020017f0152f2dc356ceee9b635d22df38497249f8d6762cad9a5c155e1ea6dc9e42f3a8152508152508160600181905250600567ffffffffffffffff811115610594576105936110a5565b5b6040519080825280602002602001820160405280156105cd57816020015b6105ba610fb8565b8152602001906001900390816105b25790505b50816080018190525060405180604001604052807f1f3952d8f1423f8952d2957957986b1efdfec7c4c71ddfbaf56087b005c69d6881526020017f2a3227d0ce0d57531132b43a80bafd1632f60ca1e80b185f3ec3d3d9dfd7444981525081608001516000815181106106435761064261143f565b5b602002602001018190525060405180604001604052807f017ca30353761d5a4f3d000564fb06a1fdc04d1b7fe6efd536cff979c2e3589281526020017f060fa1c9927c740cb366708dabcfe935dc05793667507e9dcba5e6908ed12b5581525081608001516001815181106106bb576106ba61143f565b5b602002602001018190525060405180604001604052807f265a428fb8a58cbf0788ebd8a9a2ccb37a49a2a4e57978820aa72ebd5620f63e81526020017f2f5a6f15ab808daeb69ecffc6571c299ba6a46d779a97944d7920af88a65a64181525081608001516002815181106107335761073261143f565b5b602002602001018190525060405180604001604052807f18572c6765d85cdb1fcddfce5e55de9ef2b49411ea1d6788ba5c243f03510b9b81526020017f1ea46d52fbbb4909c0befde2a4d7f13f14ebecd6651f20d6c12eabc469a3dfba81525081608001516003815181106107ab576107aa61143f565b5b602002602001018190525060405180604001604052807e4dfe5f91715e74eaec2bbac25f024def95f31fc0aff12a78d817e0f6ad491381526020017f06704e8702b874579789568f22e91b4af9983b42072bab247089c1397d9af71781525081608001516004815181106108225761082161143f565b5b602002602001018190525090565b610838610fb8565b610840610fd2565b8360000151816000600381106108595761085861143f565b5b60200201818152505083602001518160016003811061087b5761087a61143f565b5b60200201818152505082816002600381106108995761089861143f565b5b602002018181525050600060608360808460076107d05a03fa905080600081146108c2576108c4565bfe5b50806108cf57600080fd5b505092915050565b6108df610fb8565b6108e7610ff4565b836000015181600060048110610900576108ff61143f565b5b6020020181815250508360200151816001600481106109225761092161143f565b5b6020020181815250508260000151816002600481106109445761094361143f565b5b6020020181815250508260200151816003600481106109665761096561143f565b5b602002018181525050600060608360c08460066107d05a03fa9050806000811461098f57610991565bfe5b508061099c57600080fd5b505092915050565b6109ac610fb8565b60007f30644e72e131a029b85045b68181585d97816a916871ca8d3c208c16d87cfd479050600083600001511480156109e9575060008360200151145b15610a0d576040518060400160405280600081526020016000815250915050610a44565b604051806040016040528084600001518152602001828560200151610a32919061156b565b83610a3d919061159c565b8152509150505b919050565b600080600467ffffffffffffffff811115610a6757610a666110a5565b5b604051908082528060200260200182016040528015610aa057816020015b610a8d610fb8565b815260200190600190039081610a855790505b5090506000600467ffffffffffffffff811115610ac057610abf6110a5565b5b604051908082528060200260200182016040528015610af957816020015b610ae6611016565b815260200190600190039081610ade5790505b5090508a82600081518110610b1157610b1061143f565b5b60200260200101819052508882600181518110610b3157610b3061143f565b5b60200260200101819052508682600281518110610b5157610b5061143f565b5b60200260200101819052508482600381518110610b7157610b7061143f565b5b60200260200101819052508981600081518110610b9157610b9061143f565b5b60200260200101819052508781600181518110610bb157610bb061143f565b5b60200260200101819052508581600281518110610bd157610bd061143f565b5b60200260200101819052508381600381518110610bf157610bf061143f565b5b6020026020010181905250610c068282610c16565b9250505098975050505050505050565b60008151835114610c2657600080fd5b6000835190506000600682610c3b91906115d0565b905060008167ffffffffffffffff811115610c5957610c586110a5565b5b604051908082528060200260200182016040528015610c875781602001602082028036833780820191505090505b50905060005b83811015610f0c57868181518110610ca857610ca761143f565b5b602002602001015160000151826000600684610cc491906115d0565b610cce91906114e6565b81518110610cdf57610cde61143f565b5b602002602001018181525050868181518110610cfe57610cfd61143f565b5b602002602001015160200151826001600684610d1a91906115d0565b610d2491906114e6565b81518110610d3557610d3461143f565b5b602002602001018181525050858181518110610d5457610d5361143f565b5b602002602001015160000151600160028110610d7357610d7261143f565b5b6020020151826002600684610d8891906115d0565b610d9291906114e6565b81518110610da357610da261143f565b5b602002602001018181525050858181518110610dc257610dc161143f565b5b602002602001015160000151600060028110610de157610de061143f565b5b6020020151826003600684610df691906115d0565b610e0091906114e6565b81518110610e1157610e1061143f565b5b602002602001018181525050858181518110610e3057610e2f61143f565b5b602002602001015160200151600160028110610e4f57610e4e61143f565b5b6020020151826004600684610e6491906115d0565b610e6e91906114e6565b81518110610e7f57610e7e61143f565b5b602002602001018181525050858181518110610e9e57610e9d61143f565b5b602002602001015160200151600060028110610ebd57610ebc61143f565b5b6020020151826005600684610ed291906115d0565b610edc91906114e6565b81518110610eed57610eec61143f565b5b6020026020010181815250508080610f049061149d565b915050610c8d565b50610f1561103c565b6000602082602086026020860160086107d05a03fa90508060008114610f3a57610f3c565bfe5b5080610f4757600080fd5b600082600060018110610f5d57610f5c61143f565b5b602002015114159550505050505092915050565b6040518060a00160405280610f84610fb8565b8152602001610f91611016565b8152602001610f9e611016565b8152602001610fab611016565b8152602001606081525090565b604051806040016040528060008152602001600081525090565b6040518060600160405280600390602082028036833780820191505090505090565b6040518060800160405280600490602082028036833780820191505090505090565b604051806040016040528061102961105e565b815260200161103661105e565b81525090565b6040518060200160405280600190602082028036833780820191505090505090565b6040518060400160405280600290602082028036833780820191505090505090565b6000604051905090565b600080fd5b600080fd5b6000601f19601f8301169050919050565b7f4e487b7100000000000000000000000000000000000000000000000000000000600052604160045260246000fd5b6110dd82611094565b810181811067ffffffffffffffff821117156110fc576110fb6110a5565b5b80604052505050565b600061110f611080565b905061111b82826110d4565b919050565b6000819050919050565b61113381611120565b811461113e57600080fd5b50565b6000813590506111508161112a565b92915050565b60006040828403121561116c5761116b61108f565b5b6111766040611105565b9050600061118684828501611141565b600083015250602061119a84828501611141565b60208301525092915050565b600080fd5b600067ffffffffffffffff8211156111c6576111c56110a5565b5b602082029050919050565b600080fd5b60006111e96111e4846111ab565b611105565b90508060208402830185811115611203576112026111d1565b5b835b8181101561122c57806112188882611141565b845260208401935050602081019050611205565b5050509392505050565b600082601f83011261124b5761124a6111a6565b5b60026112588482856111d6565b91505092915050565b6000608082840312156112775761127661108f565b5b6112816040611105565b9050600061129184828501611236565b60008301525060406112a584828501611236565b60208301525092915050565b600061010082840312156112c8576112c761108f565b5b6112d26060611105565b905060006112e284828501611156565b60008301525060406112f684828501611261565b60208301525060c061130a84828501611156565b60408301525092915050565b600067ffffffffffffffff821115611331576113306110a5565b5b602082029050919050565b600061134f61134a84611316565b611105565b90508060208402830185811115611369576113686111d1565b5b835b81811015611392578061137e8882611141565b84526020840193505060208101905061136b565b5050509392505050565b600082601f8301126113b1576113b06111a6565b5b60046113be84828561133c565b91505092915050565b60008061018083850312156113df576113de61108a565b5b60006113ed858286016112b1565b9250506101006113ff8582860161139c565b9150509250929050565b60008115159050919050565b61141e81611409565b82525050565b60006020820190506114396000830184611415565b92915050565b7f4e487b7100000000000000000000000000000000000000000000000000000000600052603260045260246000fd5b7f4e487b7100000000000000000000000000000000000000000000000000000000600052601160045260246000fd5b60006114a882611120565b91507fffffffffffffffffffffffffffffffffffffffffffffffffffffffffffffffff8214156114db576114da61146e565b5b600182019050919050565b60006114f182611120565b91506114fc83611120565b9250827fffffffffffffffffffffffffffffffffffffffffffffffffffffffffffffffff038211156115315761153061146e565b5b828201905092915050565b7f4e487b7100000000000000000000000000000000000000000000000000000000600052601260045260246000fd5b600061157682611120565b915061158183611120565b9250826115915761159061153c565b5b828206905092915050565b60006115a782611120565b91506115b283611120565b9250828210156115c5576115c461146e565b5b828203905092915050565b60006115db82611120565b91506115e683611120565b9250817fffffffffffffffffffffffffffffffffffffffffffffffffffffffffffffffff048311821515161561161f5761161e61146e565b5b82820290509291505056fea26469706673582212209d0ee34786b0fd0c6a7f4e2ead65f394af206a7778116ce8612bcde029d504f064736f6c634300080b0033",
  "immutableReferences": {},
  "source": "// This file is MIT Licensed.\n//\n// Copyright 2017 Christian Reitwiessner\n// Permission is hereby granted, free of charge, to any person obtaining a copy of this software and associated documentation files (the \"Software\"), to deal in the Software without restriction, including without limitation the rights to use, copy, modify, merge, publish, distribute, sublicense, and/or sell copies of the Software, and to permit persons to whom the Software is furnished to do so, subject to the following conditions:\n// The above copyright notice and this permission notice shall be included in all copies or substantial portions of the Software.\n// THE SOFTWARE IS PROVIDED \"AS IS\", WITHOUT WARRANTY OF ANY KIND, EXPRESS OR IMPLIED, INCLUDING BUT NOT LIMITED TO THE WARRANTIES OF MERCHANTABILITY, FITNESS FOR A PARTICULAR PURPOSE AND NONINFRINGEMENT. IN NO EVENT SHALL THE AUTHORS OR COPYRIGHT HOLDERS BE LIABLE FOR ANY CLAIM, DAMAGES OR OTHER LIABILITY, WHETHER IN AN ACTION OF CONTRACT, TORT OR OTHERWISE, ARISING FROM, OUT OF OR IN CONNECTION WITH THE SOFTWARE OR THE USE OR OTHER DEALINGS IN THE SOFTWARE.\npragma solidity ^0.8.0;\n\nimport \"./Pairing.sol\";\n\ncontract ACKVerifier {\n    using Pairing for *;\n    struct VerifyingKey {\n        Pairing.G1Point alpha;\n        Pairing.G2Point beta;\n        Pairing.G2Point gamma;\n        Pairing.G2Point delta;\n        Pairing.G1Point[] gamma_abc;\n    }\n    struct Proof {\n        Pairing.G1Point a;\n        Pairing.G2Point b;\n        Pairing.G1Point c;\n    }\n    function verifyingKey() pure internal returns (VerifyingKey memory vk) {\n        vk.alpha = Pairing.G1Point(uint256(0x10bf0fec471841bce2d8b9e2a6dc3b2f2431e672dd5751997059ff1d8f16a627), uint256(0x21bfcf7d98faceaac6cbd80a4a8fb06019373701ac7f9f08c3f466f9b9b367c1));\n        vk.beta = Pairing.G2Point([uint256(0x12706d317ff5f71ff4f58aab46ea6535d8386b3a3c65788c3d6300499f41afb9), uint256(0x1c9145c0ab7f77a68ee62fbf077a7f543b7f98c6139131f5138f1e01fed2c3e9)], [uint256(0x0a8730dc43b5c339819951b42be97199a0ae25c03be0ddf770d351c59da543c1), uint256(0x05902dd2e1a7875c772d12b8d4f5f5e553e614dd7c6eb9819191ccae0b959d71)]);\n        vk.gamma = Pairing.G2Point([uint256(0x196c4c588bdd33d9de68092462af5578767100b97a3f9734cb63619495d3d742), uint256(0x1c55dfef540672f2ec0cc2586f4c8a1cc9010c73d7f6ae05e7a49a65140108e8)], [uint256(0x181a46abcda8b25ee3c42629278574e55ab681285be7214727c9e0165068fb67), uint256(0x1df9aef27443415c50519dbf081ffb9ffe14d07f1b8323cab7074c14456084eb)]);\n        vk.delta = Pairing.G2Point([uint256(0x29bbe3b661eb40f1ea590f1cb0b0ac2341105dda1fe415fe7a4007c11c10b8ed), uint256(0x161278ef2bc17f7a75f1a5983baa8de7f02afa601338d8bcda900092e2869f6a)], [uint256(0x169a2f332aed48a71611c15fa2c7f3fc4d87e19f7c9644a16bd36feac747454e), uint256(0x0152f2dc356ceee9b635d22df38497249f8d6762cad9a5c155e1ea6dc9e42f3a)]);\n        vk.gamma_abc = new Pairing.G1Point[](5);\n        vk.gamma_abc[0] = Pairing.G1Point(uint256(0x1f3952d8f1423f8952d2957957986b1efdfec7c4c71ddfbaf56087b005c69d68), uint256(0x2a3227d0ce0d57531132b43a80bafd1632f60ca1e80b185f3ec3d3d9dfd74449));\n        vk.gamma_abc[1] = Pairing.G1Point(uint256(0x017ca30353761d5a4f3d000564fb06a1fdc04d1b7fe6efd536cff979c2e35892), uint256(0x060fa1c9927c740cb366708dabcfe935dc05793667507e9dcba5e6908ed12b55));\n        vk.gamma_abc[2] = Pairing.G1Point(uint256(0x265a428fb8a58cbf0788ebd8a9a2ccb37a49a2a4e57978820aa72ebd5620f63e), uint256(0x2f5a6f15ab808daeb69ecffc6571c299ba6a46d779a97944d7920af88a65a641));\n        vk.gamma_abc[3] = Pairing.G1Point(uint256(0x18572c6765d85cdb1fcddfce5e55de9ef2b49411ea1d6788ba5c243f03510b9b), uint256(0x1ea46d52fbbb4909c0befde2a4d7f13f14ebecd6651f20d6c12eabc469a3dfba));\n        vk.gamma_abc[4] = Pairing.G1Point(uint256(0x004dfe5f91715e74eaec2bbac25f024def95f31fc0aff12a78d817e0f6ad4913), uint256(0x06704e8702b874579789568f22e91b4af9983b42072bab247089c1397d9af717));\n    }\n    function verify(uint[] memory input, Proof memory proof) internal view returns (uint) {\n        uint256 snark_scalar_field = 21888242871839275222246405745257275088548364400416034343698204186575808495617;\n        VerifyingKey memory vk = verifyingKey();\n        require(input.length + 1 == vk.gamma_abc.length);\n        // Compute the linear combination vk_x\n        Pairing.G1Point memory vk_x = Pairing.G1Point(0, 0);\n        for (uint i = 0; i < input.length; i++) {\n            require(input[i] < snark_scalar_field);\n            vk_x = Pairing.addition(vk_x, Pairing.scalar_mul(vk.gamma_abc[i + 1], input[i]));\n        }\n        vk_x = Pairing.addition(vk_x, vk.gamma_abc[0]);\n        if(!Pairing.pairingProd4(\n             proof.a, proof.b,\n             Pairing.negate(vk_x), vk.gamma,\n             Pairing.negate(proof.c), vk.delta,\n             Pairing.negate(vk.alpha), vk.beta)) return 1;\n        return 0;\n    }\n    function verifyTx(\n            Proof memory proof, uint[4] memory input\n        ) public view returns (bool r) {\n        uint[] memory inputValues = new uint[](4);\n        \n        for(uint i = 0; i < input.length; i++){\n            inputValues[i] = input[i];\n        }\n        if (verify(inputValues, proof) == 0) {\n            return true;\n        } else {\n            return false;\n        }\n    }\n}\n",
  "sourcePath": "/home/harry/Programming/TEKTowr/fly2plan/FPL-baseline/server/contracts/ACKVerifier.sol",
  "compiler": {
    "name": "solc",
    "version": "0.8.11+commit.d7f03943.Emscripten.clang"
  },
  "schemaVersion": "3.4.4",
  "updatedAt": "2022-02-08T15:18:13.696Z",
  "devdoc": {
    "kind": "dev",
    "methods": {},
    "version": 1
  },
  "userdoc": {
    "kind": "user",
    "methods": {},
    "version": 1
  }
}