{
  "contractName": "MerkleTreeSHA256",
  "abi": [
    {
      "inputs": [
        {
          "internalType": "uint256",
          "name": "_treeHeight",
          "type": "uint256"
        }
      ],
      "stateMutability": "nonpayable",
      "type": "constructor"
    },
    {
      "anonymous": false,
      "inputs": [
        {
          "indexed": false,
          "internalType": "uint256",
          "name": "leafIndex",
          "type": "uint256"
        },
        {
          "indexed": false,
          "internalType": "bytes32",
          "name": "leafValue",
          "type": "bytes32"
        },
        {
          "indexed": false,
          "internalType": "bytes32",
          "name": "root",
          "type": "bytes32"
        }
      ],
      "name": "NewLeaf",
      "type": "event"
    },
    {
      "anonymous": false,
      "inputs": [
        {
          "indexed": false,
          "internalType": "uint256",
          "name": "minLeafIndex",
          "type": "uint256"
        },
        {
          "indexed": false,
          "internalType": "bytes32[]",
          "name": "leafValues",
          "type": "bytes32[]"
        },
        {
          "indexed": false,
          "internalType": "bytes32",
          "name": "root",
          "type": "bytes32"
        }
      ],
      "name": "NewLeaves",
      "type": "event"
    },
    {
      "anonymous": false,
      "inputs": [
        {
          "indexed": false,
          "internalType": "bytes27",
          "name": "leftInput",
          "type": "bytes27"
        },
        {
          "indexed": false,
          "internalType": "bytes27",
          "name": "rightInput",
          "type": "bytes27"
        },
        {
          "indexed": false,
          "internalType": "bytes32",
          "name": "output",
          "type": "bytes32"
        },
        {
          "indexed": false,
          "internalType": "uint256",
          "name": "nodeIndex",
          "type": "uint256"
        }
      ],
      "name": "Output",
      "type": "event"
    },
    {
      "inputs": [
        {
          "internalType": "uint256",
          "name": "",
          "type": "uint256"
        }
      ],
      "name": "frontier",
      "outputs": [
        {
          "internalType": "bytes27",
          "name": "",
          "type": "bytes27"
        }
      ],
      "stateMutability": "view",
      "type": "function"
    },
    {
      "inputs": [],
      "name": "latestRoot",
      "outputs": [
        {
          "internalType": "bytes32",
          "name": "",
          "type": "bytes32"
        }
      ],
      "stateMutability": "view",
      "type": "function"
    },
    {
      "inputs": [],
      "name": "leafCount",
      "outputs": [
        {
          "internalType": "uint256",
          "name": "",
          "type": "uint256"
        }
      ],
      "stateMutability": "view",
      "type": "function"
    },
    {
      "inputs": [],
      "name": "treeHeight",
      "outputs": [
        {
          "internalType": "uint256",
          "name": "",
          "type": "uint256"
        }
      ],
      "stateMutability": "view",
      "type": "function"
    },
    {
      "inputs": [],
      "name": "treeWidth",
      "outputs": [
        {
          "internalType": "uint256",
          "name": "",
          "type": "uint256"
        }
      ],
      "stateMutability": "view",
      "type": "function"
    },
    {
      "inputs": [],
      "name": "zero",
      "outputs": [
        {
          "internalType": "bytes27",
          "name": "",
          "type": "bytes27"
        }
      ],
      "stateMutability": "view",
      "type": "function"
    }
  ],
  "bytecode": "0x6080604052600060281b600460006101000a8154817affffffffffffffffffffffffffffffffffffffffffffffffffffff021916908360281c021790555034801561004957600080fd5b5060405161057e38038061057e833981810160405281019061006b91906100c8565b8060008190555060005460026100819190610257565b600181905550506102a2565b600080fd5b6000819050919050565b6100a581610092565b81146100b057600080fd5b50565b6000815190506100c28161009c565b92915050565b6000602082840312156100de576100dd61008d565b5b60006100ec848285016100b3565b91505092915050565b7f4e487b7100000000000000000000000000000000000000000000000000000000600052601160045260246000fd5b60008160011c9050919050565b6000808291508390505b600185111561017b57808604811115610157576101566100f5565b5b60018516156101665780820291505b808102905061017485610124565b945061013b565b94509492505050565b6000826101945760019050610250565b816101a25760009050610250565b81600181146101b857600281146101c2576101f1565b6001915050610250565b60ff8411156101d4576101d36100f5565b5b8360020a9150848211156101eb576101ea6100f5565b5b50610250565b5060208310610133831016604e8410600b84101617156102265782820a905083811115610221576102206100f5565b5b610250565b6102338484846001610131565b9250905081840481111561024a576102496100f5565b5b81810290505b9392505050565b600061026282610092565b915061026d83610092565b925061029a7fffffffffffffffffffffffffffffffffffffffffffffffffffffffffffffffff8484610184565b905092915050565b6102cd806102b16000396000f3fe608060405234801561001057600080fd5b50600436106100625760003560e01c806301e3e9151461006757806330e69fc3146100855780636e0c3fee146100a357806376c601b1146100d3578063bc1b392d146100f1578063d7b0fef11461010f575b600080fd5b61006f61012d565b60405161007c9190610194565b60405180910390f35b61008d610133565b60405161009a9190610194565b60405180910390f35b6100bd60048036038101906100b891906101e0565b610139565b6040516100ca9190610248565b60405180910390f35b6100db61015c565b6040516100e89190610194565b60405180910390f35b6100f9610162565b6040516101069190610248565b60405180910390f35b610117610175565b604051610124919061027c565b60405180910390f35b60005481565b60035481565b6005816021811061014957600080fd5b016000915054906101000a900460281b81565b60015481565b600460009054906101000a900460281b81565b60025481565b6000819050919050565b61018e8161017b565b82525050565b60006020820190506101a96000830184610185565b92915050565b600080fd5b6101bd8161017b565b81146101c857600080fd5b50565b6000813590506101da816101b4565b92915050565b6000602082840312156101f6576101f56101af565b5b6000610204848285016101cb565b91505092915050565b60007fffffffffffffffffffffffffffffffffffffffffffffffffffffff000000000082169050919050565b6102428161020d565b82525050565b600060208201905061025d6000830184610239565b92915050565b6000819050919050565b61027681610263565b82525050565b6000602082019050610291600083018461026d565b9291505056fea26469706673582212203cff091d9c0d1973d61d1823b74409e8e9926427d198d15c39030286e75cbb9764736f6c634300080b0033",
  "immutableReferences": {},
  "source": "// SPDX-License-Identifier: CC0\n\n/**\n * A base contract which handles Merkle Tree inserts (and consequent updates to the root and 'frontier' (see below)).\n * The intention is for other 'derived' contracts to import this contract, and for those derived contracts to manage \n * permissions to actually call the insertLeaf/insertleaves functions of this base contract.\n * \n * credit: https://github.com/EYBlockchain/timber\n**/\n\npragma solidity ^0.8.0;\n\n\ncontract MerkleTreeSHA256 {\n\n    /**\n      @notice Explanation of the Merkle Tree in this contract:\n      This is an append-only merkle tree; populated from left to right.\n      We do not store all of the merkle tree's nodes. We only store the right-most 'frontier' \n      of nodes required to calculate the new root when the next new leaf value is added.\n\n                        TREE (not stored)                       FRONTIER (stored)\n\n                                   0                                     ?\n                            /             \\\n                     1                             2                     ?\n                 /       \\                     /       \\\n             3             4               5               6             ?\n           /   \\         /   \\           /   \\           /    \\\n         7       8      9      10      11      12      13      14        ?\n       /  \\    /  \\   /  \\    /  \\    /  \\    /  \\    /  \\    /  \\\n      15  16  17 18  19  20  21  22  23  24  25  26  27  28  29  30      ?\n\n      level  row  width  start#     end#\n        4     0   2^0=1   w=0     2^1-1=0\n        3     1   2^1=2   w=1     2^2-1=2\n        2     2   2^2=4   w=3     2^3-1=6\n        1     3   2^3=8   w=7     2^4-1=14\n        0     4   2^4=16  w=15    2^5-1=30\n\n      height = 4\n      w = width = 2 ** height = 2^4 = 16\n      #nodes = (2 ** (height + 1)) - 1 = 2^5-1 = 31\n    */\n\n    // These events are what the merkle-tree microservice's filters will listen for.\n    event NewLeaf(uint leafIndex, bytes32 leafValue, bytes32 root);\n    event NewLeaves(uint minLeafIndex, bytes32[] leafValues, bytes32 root);\n \n    // for debugging only\n    event Output(bytes27 leftInput, bytes27 rightInput, bytes32 output, uint nodeIndex);\n\n    uint public treeHeight;\n    uint public treeWidth;\n    bytes32 public latestRoot;\n    uint256 public leafCount; // the number of leaves currently in the tree\n\n    /**\n    Whilst ordinarily, we'd work solely with bytes32, we need to truncate nodeValues up the tree. \n    Therefore, we need to declare certain variables with lower byte-lengths:\n    LEAF_HASHLENGTH = 32 bytes;\n    NODE_HASHLENGTH = 27 bytes;\n    5 byte difference * 8 bits per byte = 40 bit shift to truncate hashlengths.\n    27 bytes * 2 inputs to sha() = 54 byte input to sha(). 54 = 0x36.\n    If in future you want to change the truncation values, search for '27', '40' and '0x36'.\n    */\n    bytes27 public zero = 0x000000000000000000000000000000000000000000000000000000;\n  \n    // the right-most 'frontier' of nodes required to calculate the new root when the next new leaf value is added.\n    bytes27[33] public frontier; \n\n    constructor(uint _treeHeight) {\n        treeHeight = _treeHeight;\n        treeWidth = 2 ** treeHeight;\n    }\n\n    /**\n    @notice Get the index of the frontier (or 'storage slot') into which we will next store a \n    nodeValue (based on the leafIndex currently being inserted). See the top-level README for a detailed explanation.\n    @return slot uint - is the index of the frontier (or 'storage slot') into which we will next store a nodeValue\n    */\n    function getFrontierSlot(uint leafIndex) private pure returns (uint slot) {\n        slot = 0;\n        if (leafIndex % 2 == 1) {\n            uint exp1 = 1;\n            uint pow1 = 2;\n            uint pow2 = pow1 << 1;\n            while (slot == 0) {\n                if ((leafIndex + 1 - pow1) % pow2 == 0) {\n                    slot = exp1;\n                } else {\n                    pow1 = pow2;\n                    pow2 = pow2 << 1;\n                    exp1++;\n                }\n            }\n        }\n    }\n\n    /**\n    @notice Insert a leaf into the Merkle Tree, update the root, and update any values in the (persistently stored) frontier.\n    @param leafValue - the value of the leaf being inserted.\n    @return root bytes32 - the root of the merkle tree, after the insert.\n    */\n    function insertLeaf(bytes32 leafValue) internal returns (bytes32) {\n\n        // check that space exists in the tree:\n        require(treeWidth > leafCount, \"There is no space left in the tree.\");\n\n        uint slot = getFrontierSlot(leafCount);\n        uint nodeIndex = leafCount + treeWidth - 1;\n\n        // nodeValue is the hash, which iteratively gets overridden to the top of the tree until it becomes the root.\n        bytes27 nodeValue = bytes27(leafValue << 40); \n\n        bytes27 leftInput;\n        bytes27 rightInput;\n        bytes32[1] memory output; // output of the hash function\n        bool success;\n\n        for (uint level = 0; level < treeHeight; level++) {\n\n            if (level == slot) frontier[slot] = nodeValue;\n\n            if (nodeIndex % 2 == 0) {\n                // even nodeIndex\n                leftInput = frontier[level];\n                rightInput = nodeValue;\n\n                // compute the hash of the inputs:\n                // note: we don't extract this hashing into a separate function because that would cost more gas.\n                /*\n                  * gasLimit: calling with gas equal to not(0), as we have here, will send all available gas to the \n                              function being called. This removes the need to guess or upper-bound the amount of gas \n                              being sent yourself. As an alternative, we could have guessed the gas needed with: sub(gas, 2000)\n                  * to: the sha256 precompiled contract is at address 0x2: Sending the amount of gas currently \n                        available to us (or after subtracting 2000 gas if using the alternative mentioned above);\n                  * inputOffset: Input data to the sha256 precompiled contract.\n                  * inputSize:\n                    hex input size = 0x40 = 2 x 32-bytes\n                    OR\n                    hex input size = 0x36 = 2 x 27-bytes\n                  * outputOffset: \"where will the output be stored?\" (in variable 'output' in our case)\n                  * outputSize: sha256 outputs 256-bits = 32-bytes = 0x20 in hex\n                */\n                assembly {\n                    // define pointer\n                    let input := mload(0x40) // 0x40 is always the free memory pointer. Don't change this.\n                    mstore(input, leftInput) // push first input\n                    mstore(add(input, 0x1b), rightInput) // push second input at position 27bytes = 0x1b\n                    success := staticcall(not(0), 2, input, 0x36, output, 0x20)\n                    // Use \"invalid\" to make gas estimation work\n                    switch success case 0 { invalid() }\n                }\n\n                nodeValue = bytes27(output[0] << 40); // the parentValue, but will become the nodeValue of the next level\n                nodeIndex = (nodeIndex - 1) / 2; // move one row up the tree\n\n                // emit Output(leftInput, rightInput, output[0], nodeIndex); // for debugging only\n            } else {\n                // odd nodeIndex\n                leftInput = nodeValue;\n                rightInput = zero;\n\n                // compute the hash of the inputs:\n                assembly {\n                    // define pointer\n                    let input := mload(0x40) // 0x40 is always the free memory pointer. Don't change this.\n                    mstore(input, leftInput) // push first input\n                    mstore(add(input, 0x1b), rightInput) // push second input at position 27bytes = 0x1b\n                    success := staticcall(not(0), 2, input, 0x36, output, 0x20)\n                    // Use \"invalid\" to make gas estimation work\n                    switch success case 0 { invalid() }\n                }\n\n                nodeValue = bytes27(output[0] << 40); // the parentValue, but will become the nodeValue of the next level\n                nodeIndex = nodeIndex / 2; // move one row up the tree\n\n                // emit Output(leftInput, rightInput, output[0], nodeIndex); // for debugging only\n            }\n        }\n\n        latestRoot = output[0];\n\n        emit NewLeaf(leafCount, leafValue, latestRoot); // this event is what the merkle-tree microservice's filter will listen for.\n\n        leafCount++; // the incrementing of leafCount costs us 20k for the first leaf, and 5k thereafter\n\n        return latestRoot; //the root of the tree\n    }\n\n    /**\n    @notice Insert multiple leaves into the Merkle Tree, and then update the root, and update any values in the (persistently stored) frontier.\n    @param leafValues - the values of the leaves being inserted.\n    @return root - the root of the merkle tree, after all the inserts.\n    */\n    function insertLeaves(bytes32[] memory leafValues) internal returns (bytes32) {\n        uint numberOfLeaves = leafValues.length;\n\n        // check that space exists in the tree:\n        require(treeWidth >= leafCount + numberOfLeaves, \"There is not enough space left in the tree.\");\n        if (numberOfLeaves > treeWidth - leafCount) {\n            uint numberOfExcessLeaves = numberOfLeaves - (treeWidth - leafCount);\n            // remove the excess leaves, because we only want to emit those we've added as an event:\n            for (uint xs = 0; xs < numberOfExcessLeaves; xs++) {\n                /**\n                  CAUTION!!! This attempts to succinctly achieve leafValues.pop() on a **memory** dynamic array. Not thoroughly tested!\n                  Credit: https://ethereum.stackexchange.com/a/51897/45916\n                */\n                assembly {\n                    mstore(leafValues, sub(mload(leafValues), 1))\n                }\n            }\n            numberOfLeaves = treeWidth - leafCount;\n        }\n\n        uint slot;\n        uint nodeIndex;\n        bytes27 nodeValue;\n\n        bytes27 leftInput;\n        bytes27 rightInput;\n        bytes32[1] memory output; // the output of the hash\n        bool success;\n\n        // consider each new leaf in turn, from left to right:\n        for (uint leafIndex = leafCount; leafIndex < leafCount + numberOfLeaves; leafIndex++) {\n            nodeValue = bytes27(leafValues[leafIndex - leafCount] << 40);\n            nodeIndex = leafIndex + treeWidth - 1; // convert the leafIndex to a nodeIndex\n\n            slot = getFrontierSlot(leafIndex); // determine at which level we will next need to store a nodeValue\n\n            if (slot == 0) {\n                frontier[slot] = nodeValue; // store in frontier\n                continue;\n            }\n\n            // hash up to the level whose nodeValue we'll store in the frontier slot:\n            for (uint level = 1; level <= slot; level++) {\n                if (nodeIndex % 2 == 0) {\n                    // even nodeIndex\n                    leftInput = frontier[level - 1];\n                    rightInput = nodeValue;\n                    // compute the hash of the inputs:\n                    // note: we don't extract this hashing into a separate function because that would cost more gas.\n                    assembly {\n                        // define pointer\n                        let input := mload(0x40) // 0x40 is always the free memory pointer. Don't change this.\n                        mstore(input, leftInput) // push first input\n                        mstore(add(input, 0x1b), rightInput) // push second input at position 27bytes = 0x1b\n                        success := staticcall(not(0), 2, input, 0x36, output, 0x20)\n                        // Use \"invalid\" to make gas estimation work\n                        switch success case 0 { invalid() }\n                    }\n\n                    // emit Output(leftInput, rightInput, output[0], level, nodeIndex); // for debugging only\n\n                    nodeValue = bytes27(output[0] << 40); // the parentValue, but will become the nodeValue of the next level\n                    nodeIndex = (nodeIndex - 1) / 2; // move one row up the tree\n                } else {\n                    // odd nodeIndex\n                    leftInput = nodeValue;\n                    rightInput = zero;\n                    // compute the hash of the inputs:\n                    assembly {\n                        // define pointer\n                        let input := mload(0x40) // 0x40 is always the free memory pointer. Don't change this.\n                        mstore(input, leftInput) // push first input\n                        mstore(add(input, 0x1b), rightInput) // push second input at position 27bytes = 0x1b\n                        success := staticcall(not(0), 2, input, 0x36, output, 0x20)\n                        // Use \"invalid\" to make gas estimation work\n                        switch success case 0 { invalid() }\n                    }\n\n                    // emit Output(leftInput, rightInput, output[0], level, nodeIndex); // for debugging only\n\n                    nodeValue = bytes27(output[0] << 40); // the parentValue, but will become the nodeValue of the next level\n                    nodeIndex = nodeIndex / 2; // the parentIndex, but will become the nodeIndex of the next level\n                }\n            }\n            frontier[slot] = nodeValue; // store in frontier\n        }\n\n        // So far we've added all leaves, and hashed up to a particular level of the tree. We now need to continue hashing from that level until the root:\n        for (uint level = slot + 1; level <= treeHeight; level++) {\n\n            if (nodeIndex % 2 == 0) {\n                // even nodeIndex\n                leftInput = frontier[level - 1];\n                rightInput = nodeValue;\n                // compute the hash of the inputs:\n                assembly {\n                    // define pointer\n                    let input := mload(0x40) // 0x40 is always the free memory pointer. Don't change this.\n                    mstore(input, leftInput) // push first input\n                    mstore(add(input, 0x1b), rightInput) // push second input at position 27bytes = 0x1b\n                    success := staticcall(not(0), 2, input, 0x36, output, 0x20)\n                    // Use \"invalid\" to make gas estimation work\n                    switch success case 0 { invalid() }\n                }\n\n                // emit Output(leftInput, rightInput, output[0], level, nodeIndex); // for debugging only\n\n                nodeValue = bytes27(output[0] << 40); // the parentValue, but will become the nodeValue of the next level\n                nodeIndex = (nodeIndex - 1) / 2;  // the parentIndex, but will become the nodeIndex of the next level\n            } else {\n                // odd nodeIndex\n                leftInput = nodeValue;\n                rightInput = zero;\n                // compute the hash of the inputs:\n                assembly {\n                    // define pointer\n                    let input := mload(0x40) // 0x40 is always the free memory pointer. Don't change this.\n                    mstore(input, leftInput) // push first input\n                    mstore(add(input, 0x1b), rightInput) // push second input at position 27bytes = 0x1b\n                    success := staticcall(not(0), 2, input, 0x36, output, 0x20)\n                    // Use \"invalid\" to make gas estimation work\n                    switch success case 0 { invalid() }\n                }\n\n                // emit Output(leftInput, rightInput, output[0], level, nodeIndex); // for debugging only\n\n                nodeValue = bytes27(output[0] << 40); // the parentValue, but will become the nodeValue of the next level\n                nodeIndex = nodeIndex / 2;  // the parentIndex, but will become the nodeIndex of the next level\n            }\n        }\n\n        latestRoot = output[0];\n\n        emit NewLeaves(leafCount, leafValues, latestRoot); // this event is what the merkle-tree microservice's filter will listen for.\n\n        leafCount += numberOfLeaves; // the incrementing of leafCount costs us 20k for the first leaf, and 5k thereafter\n\n        return latestRoot; //the root of the tree\n    }\n}",
  "sourcePath": "/home/harry/Programming/TEKTowr/fly2plan/FPL-baseline/server/contracts/lib/MerkleTreeSHA256.sol",
  "compiler": {
    "name": "solc",
    "version": "0.8.11+commit.d7f03943.Emscripten.clang"
  },
  "schemaVersion": "3.4.4",
  "updatedAt": "2022-02-08T15:18:13.749Z",
  "devdoc": {
    "kind": "dev",
    "methods": {},
    "version": 1
  },
  "userdoc": {
    "events": {
      "NewLeaf(uint256,bytes32,bytes32)": {
        "notice": "Explanation of the Merkle Tree in this contract: This is an append-only merkle tree; populated from left to right. We do not store all of the merkle tree's nodes. We only store the right-most 'frontier'  of nodes required to calculate the new root when the next new leaf value is added. TREE (not stored)                       FRONTIER (stored) 0                                     ? /             \\ 1                             2                     ? /       \\                     /       \\ 3             4               5               6             ? /   \\         /   \\           /   \\           /    \\ 7       8      9      10      11      12      13      14        ? /  \\    /  \\   /  \\    /  \\    /  \\    /  \\    /  \\    /  \\ 15  16  17 18  19  20  21  22  23  24  25  26  27  28  29  30      ? level  row  width  start#     end# 4     0   2^0=1   w=0     2^1-1=0 3     1   2^1=2   w=1     2^2-1=2 2     2   2^2=4   w=3     2^3-1=6 1     3   2^3=8   w=7     2^4-1=14 0     4   2^4=16  w=15    2^5-1=30 height = 4 w = width = 2 ** height = 2^4 = 16 #nodes = (2 ** (height + 1)) - 1 = 2^5-1 = 31"
      }
    },
    "kind": "user",
    "methods": {
      "zero()": {
        "notice": "Whilst ordinarily, we'd work solely with bytes32, we need to truncate nodeValues up the tree.  Therefore, we need to declare certain variables with lower byte-lengths: LEAF_HASHLENGTH = 32 bytes; NODE_HASHLENGTH = 27 bytes; 5 byte difference * 8 bits per byte = 40 bit shift to truncate hashlengths. 27 bytes * 2 inputs to sha() = 54 byte input to sha(). 54 = 0x36. If in future you want to change the truncation values, search for '27', '40' and '0x36'."
      }
    },
    "version": 1
  }
}