{
  "contractName": "Shield",
  "abi": [
    {
      "inputs": [
        {
          "internalType": "address",
          "name": "_FPLverifier",
          "type": "address"
        },
        {
          "internalType": "address",
          "name": "_ACKverifier",
          "type": "address"
        },
        {
          "internalType": "uint256",
          "name": "_treeHeight",
          "type": "uint256"
        }
      ],
      "stateMutability": "nonpayable",
      "type": "constructor"
    },
    {
      "anonymous": false,
      "inputs": [
        {
          "indexed": false,
          "internalType": "uint256",
          "name": "leafIndex",
          "type": "uint256"
        },
        {
          "indexed": false,
          "internalType": "bytes32",
          "name": "leafValue",
          "type": "bytes32"
        },
        {
          "indexed": false,
          "internalType": "bytes32",
          "name": "root",
          "type": "bytes32"
        }
      ],
      "name": "NewLeaf",
      "type": "event"
    },
    {
      "anonymous": false,
      "inputs": [
        {
          "indexed": false,
          "internalType": "uint256",
          "name": "minLeafIndex",
          "type": "uint256"
        },
        {
          "indexed": false,
          "internalType": "bytes32[]",
          "name": "leafValues",
          "type": "bytes32[]"
        },
        {
          "indexed": false,
          "internalType": "bytes32",
          "name": "root",
          "type": "bytes32"
        }
      ],
      "name": "NewLeaves",
      "type": "event"
    },
    {
      "anonymous": false,
      "inputs": [
        {
          "indexed": false,
          "internalType": "bytes27",
          "name": "leftInput",
          "type": "bytes27"
        },
        {
          "indexed": false,
          "internalType": "bytes27",
          "name": "rightInput",
          "type": "bytes27"
        },
        {
          "indexed": false,
          "internalType": "bytes32",
          "name": "output",
          "type": "bytes32"
        },
        {
          "indexed": false,
          "internalType": "uint256",
          "name": "nodeIndex",
          "type": "uint256"
        }
      ],
      "name": "Output",
      "type": "event"
    },
    {
      "inputs": [
        {
          "internalType": "uint256",
          "name": "",
          "type": "uint256"
        }
      ],
      "name": "frontier",
      "outputs": [
        {
          "internalType": "bytes27",
          "name": "",
          "type": "bytes27"
        }
      ],
      "stateMutability": "view",
      "type": "function"
    },
    {
      "inputs": [],
      "name": "latestRoot",
      "outputs": [
        {
          "internalType": "bytes32",
          "name": "",
          "type": "bytes32"
        }
      ],
      "stateMutability": "view",
      "type": "function"
    },
    {
      "inputs": [],
      "name": "leafCount",
      "outputs": [
        {
          "internalType": "uint256",
          "name": "",
          "type": "uint256"
        }
      ],
      "stateMutability": "view",
      "type": "function"
    },
    {
      "inputs": [],
      "name": "treeHeight",
      "outputs": [
        {
          "internalType": "uint256",
          "name": "",
          "type": "uint256"
        }
      ],
      "stateMutability": "view",
      "type": "function"
    },
    {
      "inputs": [],
      "name": "treeWidth",
      "outputs": [
        {
          "internalType": "uint256",
          "name": "",
          "type": "uint256"
        }
      ],
      "stateMutability": "view",
      "type": "function"
    },
    {
      "inputs": [],
      "name": "zero",
      "outputs": [
        {
          "internalType": "bytes27",
          "name": "",
          "type": "bytes27"
        }
      ],
      "stateMutability": "view",
      "type": "function"
    },
    {
      "inputs": [],
      "name": "getFPLVerifier",
      "outputs": [
        {
          "internalType": "address",
          "name": "",
          "type": "address"
        }
      ],
      "stateMutability": "view",
      "type": "function"
    },
    {
      "inputs": [],
      "name": "getACKVerifier",
      "outputs": [
        {
          "internalType": "address",
          "name": "",
          "type": "address"
        }
      ],
      "stateMutability": "view",
      "type": "function"
    },
    {
      "inputs": [
        {
          "components": [
            {
              "components": [
                {
                  "internalType": "uint256",
                  "name": "X",
                  "type": "uint256"
                },
                {
                  "internalType": "uint256",
                  "name": "Y",
                  "type": "uint256"
                }
              ],
              "internalType": "struct Pairing.G1Point",
              "name": "a",
              "type": "tuple"
            },
            {
              "components": [
                {
                  "internalType": "uint256[2]",
                  "name": "X",
                  "type": "uint256[2]"
                },
                {
                  "internalType": "uint256[2]",
                  "name": "Y",
                  "type": "uint256[2]"
                }
              ],
              "internalType": "struct Pairing.G2Point",
              "name": "b",
              "type": "tuple"
            },
            {
              "components": [
                {
                  "internalType": "uint256",
                  "name": "X",
                  "type": "uint256"
                },
                {
                  "internalType": "uint256",
                  "name": "Y",
                  "type": "uint256"
                }
              ],
              "internalType": "struct Pairing.G1Point",
              "name": "c",
              "type": "tuple"
            }
          ],
          "internalType": "struct S.Proof",
          "name": "proof",
          "type": "tuple"
        },
        {
          "internalType": "uint256[2]",
          "name": "input",
          "type": "uint256[2]"
        },
        {
          "internalType": "bytes32",
          "name": "_newCommitment",
          "type": "bytes32"
        }
      ],
      "name": "verifyAndPushFPL",
      "outputs": [
        {
          "internalType": "bool",
          "name": "",
          "type": "bool"
        }
      ],
      "stateMutability": "nonpayable",
      "type": "function"
    },
    {
      "inputs": [
        {
          "components": [
            {
              "components": [
                {
                  "internalType": "uint256",
                  "name": "X",
                  "type": "uint256"
                },
                {
                  "internalType": "uint256",
                  "name": "Y",
                  "type": "uint256"
                }
              ],
              "internalType": "struct Pairing.G1Point",
              "name": "a",
              "type": "tuple"
            },
            {
              "components": [
                {
                  "internalType": "uint256[2]",
                  "name": "X",
                  "type": "uint256[2]"
                },
                {
                  "internalType": "uint256[2]",
                  "name": "Y",
                  "type": "uint256[2]"
                }
              ],
              "internalType": "struct Pairing.G2Point",
              "name": "b",
              "type": "tuple"
            },
            {
              "components": [
                {
                  "internalType": "uint256",
                  "name": "X",
                  "type": "uint256"
                },
                {
                  "internalType": "uint256",
                  "name": "Y",
                  "type": "uint256"
                }
              ],
              "internalType": "struct Pairing.G1Point",
              "name": "c",
              "type": "tuple"
            }
          ],
          "internalType": "struct S.Proof",
          "name": "proof",
          "type": "tuple"
        },
        {
          "internalType": "uint256[4]",
          "name": "input",
          "type": "uint256[4]"
        },
        {
          "internalType": "bytes32",
          "name": "_newCommitment",
          "type": "bytes32"
        }
      ],
      "name": "verifyAndPushACK",
      "outputs": [
        {
          "internalType": "bool",
          "name": "",
          "type": "bool"
        }
      ],
      "stateMutability": "nonpayable",
      "type": "function"
    }
  ],
  "bytecode": "0x6080604052600060281b600460006101000a8154817affffffffffffffffffffffffffffffffffffffffffffffffffffff021916908360281c02179055503480156200004a57600080fd5b50604051620017c6380380620017c68339818101604052810190620000709190620001c0565b808060008190555060005460026200008991906200039f565b6001819055505082602660006101000a81548173ffffffffffffffffffffffffffffffffffffffff021916908373ffffffffffffffffffffffffffffffffffffffff16021790555081602760006101000a81548173ffffffffffffffffffffffffffffffffffffffff021916908373ffffffffffffffffffffffffffffffffffffffff160217905550505050620003f0565b600080fd5b600073ffffffffffffffffffffffffffffffffffffffff82169050919050565b60006200014d8262000120565b9050919050565b6200015f8162000140565b81146200016b57600080fd5b50565b6000815190506200017f8162000154565b92915050565b6000819050919050565b6200019a8162000185565b8114620001a657600080fd5b50565b600081519050620001ba816200018f565b92915050565b600080600060608486031215620001dc57620001db6200011b565b5b6000620001ec868287016200016e565b9350506020620001ff868287016200016e565b92505060406200021286828701620001a9565b9150509250925092565b7f4e487b7100000000000000000000000000000000000000000000000000000000600052601160045260246000fd5b60008160011c9050919050565b6000808291508390505b6001851115620002aa578086048111156200028257620002816200021c565b5b6001851615620002925780820291505b8081029050620002a2856200024b565b945062000262565b94509492505050565b600082620002c5576001905062000398565b81620002d5576000905062000398565b8160018114620002ee5760028114620002f9576200032f565b600191505062000398565b60ff8411156200030e576200030d6200021c565b5b8360020a9150848211156200032857620003276200021c565b5b5062000398565b5060208310610133831016604e8410600b8410161715620003695782820a9050838111156200036357620003626200021c565b5b62000398565b62000378848484600162000258565b925090508184048111156200039257620003916200021c565b5b81810290505b9392505050565b6000620003ac8262000185565b9150620003b98362000185565b9250620003e87fffffffffffffffffffffffffffffffffffffffffffffffffffffffffffffffff8484620002b3565b905092915050565b6113c680620004006000396000f3fe608060405234801561001057600080fd5b506004361061009e5760003560e01c806376c601b11161006657806376c601b11461015d5780639c233ca11461017b578063bc1b392d14610199578063d7b0fef1146101b7578063f6591ae2146101d55761009e565b806301e3e915146100a357806330e69fc3146100c15780634750250d146100df5780636e0c3fee1461010f57806376a7d7861461013f575b600080fd5b6100ab610205565b6040516100b89190610808565b60405180910390f35b6100c961020b565b6040516100d69190610808565b60405180910390f35b6100f960048036038101906100f49190610b96565b610211565b6040516101069190610c07565b60405180910390f35b61012960048036038101906101249190610c22565b61030c565b6040516101369190610c8a565b60405180910390f35b61014761032f565b6040516101549190610ce6565b60405180910390f35b610165610359565b6040516101729190610808565b60405180910390f35b61018361035f565b6040516101909190610ce6565b60405180910390f35b6101a1610389565b6040516101ae9190610c8a565b60405180910390f35b6101bf61039c565b6040516101cc9190610d10565b60405180910390f35b6101ef60048036038101906101ea9190610d2b565b6103a2565b6040516101fc9190610c07565b60405180910390f35b60005481565b60035481565b600080602760009054906101000a900473ffffffffffffffffffffffffffffffffffffffff1673ffffffffffffffffffffffffffffffffffffffff1663799afa7686866040518363ffffffff1660e01b8152600401610271929190610f51565b6020604051808303816000875af1158015610290573d6000803e3d6000fd5b505050506040513d601f19601f820116820180604052508101906102b49190610fa8565b9050806102f6576040517f08c379a00000000000000000000000000000000000000000000000000000000081526004016102ed90611058565b60405180910390fd5b6102ff8361049d565b5060019150509392505050565b6005816021811061031c57600080fd5b016000915054906101000a900460281b81565b6000602760009054906101000a900473ffffffffffffffffffffffffffffffffffffffff16905090565b60015481565b6000602660009054906101000a900473ffffffffffffffffffffffffffffffffffffffff16905090565b600460009054906101000a900460281b81565b60025481565b600080602660009054906101000a900473ffffffffffffffffffffffffffffffffffffffff1673ffffffffffffffffffffffffffffffffffffffff166343cd76fc86866040518363ffffffff1660e01b81526004016104029291906110da565b6020604051808303816000875af1158015610421573d6000803e3d6000fd5b505050506040513d601f19601f820116820180604052508101906104459190610fa8565b905080610487576040517f08c379a000000000000000000000000000000000000000000000000000000000815260040161047e90611058565b60405180910390fd5b6104908361049d565b5060019150509392505050565b6000600354600154116104e5576040517f08c379a00000000000000000000000000000000000000000000000000000000081526004016104dc90611177565b60405180910390fd5b60006104f260035461073d565b905060006001805460035461050791906111c6565b610511919061121c565b90506000602885901b90506000806105276107cd565b600080600090505b6000548110156106b5578781141561058a57856005896021811061055657610555611250565b5b0160006101000a8154817affffffffffffffffffffffffffffffffffffffffffffffffffffff021916908360281c02179055505b600060028861059991906112ae565b141561063257600581602181106105b3576105b2611250565b5b0160009054906101000a900460281b945085935060405185815284601b8201526020846036836002600019fa925082600081146105ef576105f1565bfe5b505060288360006001811061060957610608611250565b5b6020020151901b95506002600188610621919061121c565b61062b91906112df565b96506106a2565b859450600460009054906101000a900460281b935060405185815284601b8201526020846036836002600019fa9250826000811461066f57610671565bfe5b505060288360006001811061068957610688611250565b5b6020020151901b955060028761069f91906112df565b96505b80806106ad90611310565b91505061052f565b50816000600181106106ca576106c9611250565b5b60200201516002819055507f6a82ba2aa1d2c039c41e6e2b5a5a1090d09906f060d32af9c1ac0beff7af75c06003548a60025460405161070c93929190611359565b60405180910390a16003600081548092919061072790611310565b9190505550600254975050505050505050919050565b6000600160028361074e91906112ae565b14156107c8576000600190506000600290506000600182901b90505b60008414156107c4576000818360018861078491906111c6565b61078e919061121c565b61079891906112ae565b14156107a6578293506107bf565b809150600181901b905082806107bb90611310565b9350505b61076a565b5050505b919050565b6040518060200160405280600190602082028036833780820191505090505090565b6000819050919050565b610802816107ef565b82525050565b600060208201905061081d60008301846107f9565b92915050565b6000604051905090565b600080fd5b600080fd5b6000601f19601f8301169050919050565b7f4e487b7100000000000000000000000000000000000000000000000000000000600052604160045260246000fd5b61088082610837565b810181811067ffffffffffffffff8211171561089f5761089e610848565b5b80604052505050565b60006108b2610823565b90506108be8282610877565b919050565b6108cc816107ef565b81146108d757600080fd5b50565b6000813590506108e9816108c3565b92915050565b60006040828403121561090557610904610832565b5b61090f60406108a8565b9050600061091f848285016108da565b6000830152506020610933848285016108da565b60208301525092915050565b600080fd5b600067ffffffffffffffff82111561095f5761095e610848565b5b602082029050919050565b600080fd5b600061098261097d84610944565b6108a8565b9050806020840283018581111561099c5761099b61096a565b5b835b818110156109c557806109b188826108da565b84526020840193505060208101905061099e565b5050509392505050565b600082601f8301126109e4576109e361093f565b5b60026109f184828561096f565b91505092915050565b600060808284031215610a1057610a0f610832565b5b610a1a60406108a8565b90506000610a2a848285016109cf565b6000830152506040610a3e848285016109cf565b60208301525092915050565b60006101008284031215610a6157610a60610832565b5b610a6b60606108a8565b90506000610a7b848285016108ef565b6000830152506040610a8f848285016109fa565b60208301525060c0610aa3848285016108ef565b60408301525092915050565b600067ffffffffffffffff821115610aca57610ac9610848565b5b602082029050919050565b6000610ae8610ae384610aaf565b6108a8565b90508060208402830185811115610b0257610b0161096a565b5b835b81811015610b2b5780610b1788826108da565b845260208401935050602081019050610b04565b5050509392505050565b600082601f830112610b4a57610b4961093f565b5b6004610b57848285610ad5565b91505092915050565b6000819050919050565b610b7381610b60565b8114610b7e57600080fd5b50565b600081359050610b9081610b6a565b92915050565b60008060006101a08486031215610bb057610baf61082d565b5b6000610bbe86828701610a4a565b935050610100610bd086828701610b35565b925050610180610be286828701610b81565b9150509250925092565b60008115159050919050565b610c0181610bec565b82525050565b6000602082019050610c1c6000830184610bf8565b92915050565b600060208284031215610c3857610c3761082d565b5b6000610c46848285016108da565b91505092915050565b60007fffffffffffffffffffffffffffffffffffffffffffffffffffffff000000000082169050919050565b610c8481610c4f565b82525050565b6000602082019050610c9f6000830184610c7b565b92915050565b600073ffffffffffffffffffffffffffffffffffffffff82169050919050565b6000610cd082610ca5565b9050919050565b610ce081610cc5565b82525050565b6000602082019050610cfb6000830184610cd7565b92915050565b610d0a81610b60565b82525050565b6000602082019050610d256000830184610d01565b92915050565b60008060006101608486031215610d4557610d4461082d565b5b6000610d5386828701610a4a565b935050610100610d65868287016109cf565b925050610140610d7786828701610b81565b9150509250925092565b610d8a816107ef565b82525050565b604082016000820151610da66000850182610d81565b506020820151610db96020850182610d81565b50505050565b600060029050919050565b600081905092915050565b6000819050919050565b6000610deb8383610d81565b60208301905092915050565b6000602082019050919050565b610e0d81610dbf565b610e178184610dca565b9250610e2282610dd5565b8060005b83811015610e53578151610e3a8782610ddf565b9650610e4583610df7565b925050600181019050610e26565b505050505050565b608082016000820151610e716000850182610e04565b506020820151610e846040850182610e04565b50505050565b61010082016000820151610ea16000850182610d90565b506020820151610eb46040850182610e5b565b506040820151610ec760c0850182610d90565b50505050565b600060049050919050565b600081905092915050565b6000819050919050565b6000602082019050919050565b610f0381610ecd565b610f0d8184610ed8565b9250610f1882610ee3565b8060005b83811015610f49578151610f308782610ddf565b9650610f3b83610eed565b925050600181019050610f1c565b505050505050565b600061018082019050610f676000830185610e8a565b610f75610100830184610efa565b9392505050565b610f8581610bec565b8114610f9057600080fd5b50565b600081519050610fa281610f7c565b92915050565b600060208284031215610fbe57610fbd61082d565b5b6000610fcc84828501610f93565b91505092915050565b600082825260208201905092915050565b7f5468652070726f6f66206661696c656420766572696669636174696f6e20696e60008201527f2074686520766572696669657220636f6e747261637400000000000000000000602082015250565b6000611042603683610fd5565b915061104d82610fe6565b604082019050919050565b6000602082019050818103600083015261107181611035565b9050919050565b600081905092915050565b61108c81610dbf565b6110968184611078565b92506110a182610dd5565b8060005b838110156110d25781516110b98782610ddf565b96506110c483610df7565b9250506001810190506110a5565b505050505050565b6000610140820190506110f06000830185610e8a565b6110fe610100830184611083565b9392505050565b7f5468657265206973206e6f207370616365206c65667420696e2074686520747260008201527f65652e0000000000000000000000000000000000000000000000000000000000602082015250565b6000611161602383610fd5565b915061116c82611105565b604082019050919050565b6000602082019050818103600083015261119081611154565b9050919050565b7f4e487b7100000000000000000000000000000000000000000000000000000000600052601160045260246000fd5b60006111d1826107ef565b91506111dc836107ef565b9250827fffffffffffffffffffffffffffffffffffffffffffffffffffffffffffffffff0382111561121157611210611197565b5b828201905092915050565b6000611227826107ef565b9150611232836107ef565b92508282101561124557611244611197565b5b828203905092915050565b7f4e487b7100000000000000000000000000000000000000000000000000000000600052603260045260246000fd5b7f4e487b7100000000000000000000000000000000000000000000000000000000600052601260045260246000fd5b60006112b9826107ef565b91506112c4836107ef565b9250826112d4576112d361127f565b5b828206905092915050565b60006112ea826107ef565b91506112f5836107ef565b9250826113055761130461127f565b5b828204905092915050565b600061131b826107ef565b91507fffffffffffffffffffffffffffffffffffffffffffffffffffffffffffffffff82141561134e5761134d611197565b5b600182019050919050565b600060608201905061136e60008301866107f9565b61137b6020830185610d01565b6113886040830184610d01565b94935050505056fea2646970667358221220dc58efe5ecd0c598e23f3ab6fc31f3509b8ce3e62a18df6cb4864dd1f295e5c364736f6c634300080b0033",
  "immutableReferences": {},
  "source": "// SPDX-License-Identifier: CC0\npragma solidity ^0.8.0;\n\nimport \"./lib/MerkleTreeSHA256.sol\";\nimport \"./IShield.sol\";\nimport \"./IVerifier.sol\";\n\ncontract Shield is IShield, MerkleTreeSHA256 {\n    // CONTRACT INSTANCES:\n    IFPLVerifier private FPLverifier; // the FPL verification smart contract\n    IACKVerifier private ACKverifier; // the ACK verification smart contract\n\n    // FUNCTIONS:\n    constructor(address _FPLverifier, address _ACKverifier, uint _treeHeight) public MerkleTreeSHA256(_treeHeight) {\n        FPLverifier = IFPLVerifier(_FPLverifier);\n        ACKverifier = IACKVerifier(_ACKverifier);\n    }\n\n    // returns the FPL verifier contract address that this shield contract uses for FPL proof verification\n    function getFPLVerifier() external override view returns (address) {\n        return address(FPLverifier);\n    }\n\n    // returns the ACK verifier contract address that this shield contract uses for ACK proof verification\n    function getACKVerifier() external override view returns (address) {\n        return address(ACKverifier);\n    }\n\n    function verifyAndPushFPL(\n        S.Proof memory proof,\n        uint[2] memory input,\n        bytes32 _newCommitment\n    ) external override returns (bool) {\n\n        // verify the proof\n        bool result = FPLverifier.verifyTx(proof, input);\n        require(result, \"The proof failed verification in the verifier contract\");\n\n        // update contract states\n        insertLeaf(_newCommitment); // recalculate the root of the merkleTree as it's now different\n        return true;\n    }\n\n    function verifyAndPushACK(\n        S.Proof memory proof,\n        uint[4] memory input,\n        bytes32 _newCommitment\n    ) external override returns (bool) {\n\n        // verify the proof\n        bool result = ACKverifier.verifyTx(proof, input);\n        require(result, \"The proof failed verification in the verifier contract\");\n\n        // update contract states\n        insertLeaf(_newCommitment); // recalculate the root of the merkleTree as it's now different\n        return true;\n    }\n}",
  "sourcePath": "/home/harry/Programming/TEKTowr/fly2plan/FPL-baseline/server/contracts/Shield.sol",
  "compiler": {
    "name": "solc",
    "version": "0.8.11+commit.d7f03943.Emscripten.clang"
  },
  "schemaVersion": "3.4.4",
  "updatedAt": "2022-02-08T15:18:13.740Z",
  "devdoc": {
    "kind": "dev",
    "methods": {},
    "version": 1
  },
  "userdoc": {
    "events": {
      "NewLeaf(uint256,bytes32,bytes32)": {
        "notice": "Explanation of the Merkle Tree in this contract: This is an append-only merkle tree; populated from left to right. We do not store all of the merkle tree's nodes. We only store the right-most 'frontier'  of nodes required to calculate the new root when the next new leaf value is added. TREE (not stored)                       FRONTIER (stored) 0                                     ? /             \\ 1                             2                     ? /       \\                     /       \\ 3             4               5               6             ? /   \\         /   \\           /   \\           /    \\ 7       8      9      10      11      12      13      14        ? /  \\    /  \\   /  \\    /  \\    /  \\    /  \\    /  \\    /  \\ 15  16  17 18  19  20  21  22  23  24  25  26  27  28  29  30      ? level  row  width  start#     end# 4     0   2^0=1   w=0     2^1-1=0 3     1   2^1=2   w=1     2^2-1=2 2     2   2^2=4   w=3     2^3-1=6 1     3   2^3=8   w=7     2^4-1=14 0     4   2^4=16  w=15    2^5-1=30 height = 4 w = width = 2 ** height = 2^4 = 16 #nodes = (2 ** (height + 1)) - 1 = 2^5-1 = 31"
      }
    },
    "kind": "user",
    "methods": {
      "zero()": {
        "notice": "Whilst ordinarily, we'd work solely with bytes32, we need to truncate nodeValues up the tree.  Therefore, we need to declare certain variables with lower byte-lengths: LEAF_HASHLENGTH = 32 bytes; NODE_HASHLENGTH = 27 bytes; 5 byte difference * 8 bits per byte = 40 bit shift to truncate hashlengths. 27 bytes * 2 inputs to sha() = 54 byte input to sha(). 54 = 0x36. If in future you want to change the truncation values, search for '27', '40' and '0x36'."
      }
    },
    "version": 1
  }
}